:100000000C9446000C9465000C9465000C946500FB
:100010000C9465000C9465000C9465000C946500CC
:100020000C9465000C9465000C9465000C946500BC
:100030000C9465000C94DE000C9465000C94650033
:100040000C9465000C9465000C9465000C9465009C
:100050000C9465000C9465000C9465000C9465008C
:100060000C9465000C9465000C9465000C9465007C
:100070000C9465000C9465000C9465000C9465006C
:100080000C9465000C9465000C94650011241FBE4F
:10009000CFEFD0E4DEBFCDBF11E0A0E0B1E0EAEAEF
:1000A000F9E000E00BBF02C007900D92AC33B1073E
:1000B000D9F721E0ACE3B1E001C01D92A934B20749
:1000C000E1F70E9415030C94D3040C940000CF9325
:1000D000DF9300D01F92CDB7DEB789837B836A831D
:1000E00089818A3031F48A819B81BC018DE00E9434
:1000F000670080EC90E0FC018081882F90E08072A6
:100100009927892BB1F386EC90E02981FC012083AB
:1001100080E090E00F900F900F90DF91CF910895C5
:10012000CF93DF93CDB7DEB781E890E02BE0FC0101
:10013000208388E890E02DE730E0FC0131832083C4
:100140008FE690E022E0FC01208384E890E0FC014F
:100150001182108280910E0190910F01A0911001E7
:10016000B091110180933D0190933E01A0933F0116
:10017000B09340018FE590E02FE530E0F901208158
:100180002068FC0120830000DF91CF910895CF9378
:10019000DF93CDB7DEB781E890E0FC01108200006C
:1001A000DF91CF910895CF93DF93CDB7DEB781E094
:1001B00080933C010000DF91CF9108951F920F9230
:1001C00000905F000F92112400905B000F922F931C
:1001D0003F934F935F936F937F938F939F93AF93CF
:1001E000BF93EF93FF93CF93DF93CDB7DEB78091AB
:1001F0003D0190913E01A0913F01B09140010197D6
:10020000A109B10980933D0190933E01A0933F0164
:10021000B093400180913D0190913E01A0913F013A
:10022000B0914001892B8A2B8B2B91F40E94D30033
:1002300080910E0190910F01A0911001B0911101D8
:1002400080933D0190933E01A0933F01B093400104
:100250000000DF91CF91FF91EF91BF91AF919F91FE
:100260008F917F916F915F914F913F912F910F905F
:1002700000925B000F9000925F000F901F90189506
:10028000CF93DF9300D000D0CDB7DEB769837A83F8
:100290008B839C8389819A81AB81BC8180930E0181
:1002A00090930F01A0931001B093110180910E0162
:1002B00090910F01A0911001B091110180933D0127
:1002C00090933E01A0933F01B093400100000F9036
:1002D0000F900F900F90DF91CF9108950F931F9380
:1002E000CF93DF9300D000D0CDB7DEB769837A8398
:1002F0008B839C838091430190914401A09145019F
:10030000B09146019C01AD0169817A818B819C810C
:100310000E943F03882309F477C020E030E0A90160
:1003200069817A818B819C810E943F03882351F4EB
:1003300081E990E021E930E0F90120812870FC0199
:10034000208309C081E990E021E930E0F9012081B2
:100350002360FC01208328E539E344E75FE36981FA
:100360007A818B819C810E943F03882344F488E931
:1003700090E02FEF3FEFFC013183208334C020E079
:1003800034E244EF56E469817A818B819C810E943A
:100390006104181634F488E990E0FC01118210829F
:1003A00022C008E910E020E030E040E053E4698139
:1003B0007A818B819C810E946604DC01CB019C01C7
:1003C000AD0160E074E284EF9AE40E944403DC0132
:1003D000CB01BC01CD010E94B603DC01CB0101972A
:1003E000F8019183808384E990E0FC0111821082FE
:1003F00089819A81AB81BC818093430190934401B0
:10040000A0934501B093460100000F900F900F900C
:100410000F90DF91CF911F910F910895CF93DF93AC
:10042000CDB7DEB780E990E020E4FC01208381E9CC
:1004300090E02BE0FC01208360E070E0CB010E94A3
:100440006E010000DF91CF910895CF93DF93CDB778
:10045000DEB780E990E0FC01108281E990E0FC01C8
:1004600010820000DF91CF910895CF93DF931F9208
:10047000CDB7DEB780E290E0FC0180818095898372
:1004800080914701909148018230910579F1833044
:10049000910528F4009759F0019781F073C08330DB
:1004A000910509F44DC0049709F45BC06BC081E06D
:1004B00090E0909348018093470169C0898184301E
:1004C00071F40E940E0282E090E0909348018093C4
:1004D0004701809142018F5F8093420158C081E0C3
:1004E00090E0909348018093470151C08091420170
:1004F0008F5F809342018981813039F483E090E0FD
:10050000909348018093470142C08981823039F439
:1005100084E090E0909348018093470138C089813E
:10052000843039F481E090E0909348018093470152
:100530002EC082E090E0909348018093470127C04D
:100540008981843039F481E090E090934801809370
:1005500047011DC082E090E09093480180934701DD
:1005600016C08981843039F481E090E0909348018D
:10057000809347010CC082E090E090934801809303
:10058000470105C010924801109247010000809178
:100590004701909148018230910589F0833091059F
:1005A00018F4019739F03CC08330910511F104979C
:1005B00051F136C00E9425021092420131C0809153
:1005C0004201882F90E08E5C9E4FFC018081882F35
:1005D00090E0880F991F880F991F8E5E9E4FFC0137
:1005E00080819181A281B381BC01CD010E946E0105
:1005F00017C080914201873080F4809142018F5F63
:10060000809342010AC080914201882341F0809189
:10061000420181508093420102C0000001C00000ED
:1006200000000F90DF91CF910895CF93DF93CDB766
:10063000DEB781E290E0FC01108282E290E02FEFD1
:10064000FC01208384E290E02FEFFC01208385E20F
:1006500090E0FC0110820E940E0264E670E080E0EF
:1006600090E00E9440010E9490000E94350200002C
:1006700080913C018823E1F310923C01F6CF0E9467
:10068000EC0308F481E008950E9458030C942704B9
:100690000E94200458F00E94190440F029F45F3FA2
:1006A00029F00C94100451110C945B040C94160462
:1006B0000E94380468F39923B1F3552391F3951BF5
:1006C000550BBB27AA2762177307840738F09F5F73
:1006D0005F4F220F331F441FAA1FA9F335D00E2EE0
:1006E0003AF0E0E832D091505040E695001CCAF74D
:1006F0002BD0FE2F29D0660F771F881FBB1F261710
:1007000037074807AB07B0E809F0BB0B802DBF01E6
:10071000FF2793585F4F3AF09E3F510578F00C94B5
:1007200010040C945B045F3FE4F3983ED4F3869589
:1007300077956795B795F7959F5FC9F7880F911DD6
:100740009695879597F90895E1E0660F771F881FC2
:10075000BB1F621773078407BA0720F0621B730B75
:10076000840BBA0BEE1F88F7E09508950E94BD0335
:100770006894B1110C945B0408950E94400488F0C1
:100780009F5798F0B92F9927B751B0F0E1F0660F55
:10079000771F881F991F1AF0BA95C9F714C0B13096
:1007A00091F00E945A04B1E008950C945A04672F06
:1007B000782F8827B85F39F0B93FCCF386957795C5
:1007C0006795B395D9F73EF49095809570956195AE
:1007D0007F4F8F4F9F4F0895990F0008550FAA0B19
:1007E000E0E8FEEF16161706E807F907C0F0121644
:1007F0001306E407F50798F0621B730B840B950B47
:1008000039F40A2661F0232B242B252B21F408959B
:100810000A2609F4A140A6958FEF811D811D089538
:1008200097F99F6780E870E060E008959FEF80ECA3
:10083000089500240A941616170618060906089546
:1008400000240A9412161306140605060895092EAC
:100850000394000C11F4882352F0BB0F40F4BF2B1B
:1008600011F460FF04C06F5F7F4F8F4F9F4F08955B
:1008700057FD9058440F551F59F05F3F71F0479551
:10088000880F97FB991F61F09F3F79F08795089536
:10089000121613061406551FF2CF4695F1DF08C055
:1008A000161617061806991FF1CF86957105610572
:1008B00008940895E894BB2766277727CB0197F91A
:1008C00008950E94EC0308F48FEF08950E947904C4
:1008D0000C9427040E94190438F00E94200420F090
:1008E000952311F00C9410040C94160411240C940C
:1008F0005B040E94380470F3959FC1F3950F50E09C
:10090000551F629FF001729FBB27F00DB11D639FC1
:10091000AA27F00DB11DAA1F649F6627B00DA11D67
:10092000661F829F2227B00DA11D621F739FB00D0D
:10093000A11D621F839FA00D611D221F749F33277D
:10094000A00D611D231F849F600D211D822F762F16
:100950006A2F11249F5750409AF0F1F088234AF0F3
:10096000EE0FFF1FBB1F661F771F881F915050405F
:10097000A9F79E3F510580F00C9410040C945B0481
:100980005F3FE4F3983ED4F3869577956795B795E6
:10099000F795E7959F5FC1F7FE2B880F911D969500
:0A09A000879597F90895F894FFCFAA
:1009AA0000000002000000006700000000000100D3
:1009BA000000A4D082437BD49243A4D0A443719D67
:1009CA00AE430000C4430000DC43A4F0F64300D069
:0C09DA00024401030204030605040100AE
:00000001FF
